:020000040800F2
:100000007808022071030008790300087B030008C8
:100010007D0300087F030008810300080000000042
:100020000000000000000000000000008303000842
:10003000850300080000000087030008890300080A
:100040008B0300088B0300088B0300088B03000858
:100050008B0300088B0300088B0300088B03000848
:100060008B0300088B0300088B0300088B03000838
:100070008B0300088B0300088B0300088B03000828
:100080008B0300088B0300088B0300088B03000818
:100090008B0300088B0300088B0300088B03000808
:1000A0008B0300088B0300088B0300088B030008F8
:1000B0008B0300088B0300088B0300088B030008E8
:1000C0008B0300088B0300088B0300088B030008D8
:1000D0008B0300088B0300088B03000849160008F7
:1000E000E11500088B0300088B0300088B03000850
:1000F0008B0300088B0300088B0300088B030008A8
:100100008B0300088B0300088B0300088B03000897
:100110008B0300088B0300088B0300088B03000887
:100120008B0300088B0300088B0300088B03000877
:100130008B0300088B0300088B0300088B03000867
:100140008B0300088B0300088B0300088B03000857
:100150008B0300088B0300088B0300088B03000847
:100160008B0300088B0300088B0300088B03000837
:100170008B0300088B0300088B03000800000000BD
:100180008B0300088B0300088B0300088B03000817
:100190008B0300088B0300088B0300088B03000807
:1001A0008B0300088B0300088B0300088B030008F7
:1001B0008B0300088B0300088B0300088B030008E7
:1001C0008B0300088B030008000000008B0300086D
:1001D0008B0300088B0300088B0300088B030008C7
:1001E0008B0300088B0300088B0300088B030008B7
:1001F0008B0300088B03000800F002F800F0A8F859
:1002000014A696E8000CB244B344DA4501D100F0DC
:100210009FF8BAE80F000FA696E83000A5EB04059A
:1002200004EB0607AAEB0704A7F101074FEA15152F
:100230004FEA3414A4F10104AC4201D300F088F871
:1002400013F0010F18BFFB1A43F0010300F001F88F
:10025000DBE71847F42B0000142C0000103A24BFF1
:1002600078C878C1FAD8520724BF30C830C144BF1B
:1002700004680C60704700007047000000230024F1
:1002800000250026103A28BF78C1FBD8520728BFA6
:1002900030C148BF0B6070476E2900F0A5817029FE
:1002A00000F0E782662902F01885652902F01585BD
:1002B000672902F01285612902F0118503681B0A83
:1002C00028BF41F08001692900F05281642900F0C3
:1002D0004F81752900F04C816F2900F075827829D3
:1002E00000F0B382E92900F00F82E42900F00C82CB
:1002F000F52900F00982EF2900F07282F82900F058
:10030000B2820368DB0928BF41F08001632900F055
:10031000E587732900F0EA87E32900F0F587F329E0
:1003200000F0FA87002070471FB502F0C9FC01F009
:1003300049F804000020002102F0ACFC401C606081
:100340000020002102F090FCE0601FBD10B510BD40
:1003500001F00AF81146FFF7E7FF01F085FD01F013
:10036000E7F803B4FFF7F2FF03BC01F02FF9000038
:100370000948804709480047FEE7FEE7FEE7FEE739
:10038000FEE7FEE7FEE7FEE7FEE7FEE70448054975
:10039000054A064B7047000029160008F9010008BD
:1003A00078020220780802207804022078040220D3
:1003B0000FB41CB5084B06AA7B446946009005980B
:1003C00000F02BF904460020694600F039F9204678
:1003D0001CBC5DF814FB00008502000010B5431C36
:1003E00002E010F8011B71B18107FAD14FF0013220
:1003F00002C88C1A8C4314EAC211F9D0C01A0A063A
:1004000003D0C01E10BDC01A10BD0A0401D0801E4A
:1004100010BD0902FCD0401E10BD032A40F23080FE
:1004200010F0030C00F0158011F8013BBCF1020F35
:10043000624498BF11F801CB00F8013B38BF11F8B6
:10044000013BA2F1040298BF00F801CB38BF00F8CD
:10045000013B11F0030300F0DB82083AC0F0088092
:1004600051F8043B083A51F804CBA0E80810F5E72E
:10047000121D5CBF51F8043B40F8043BAFF3008011
:10048000D20724BF11F8013B11F801CB48BF11F886
:10049000012B24BF00F8013B00F801CB48BF00F856
:1004A000012B704770477047704770B504468569E7
:1004B0000068C10601D5302600E02026C00707D01D
:1004C00070BDD4E9012130469047206A401C20626B
:1004D0006D1EF6D570BD70B5044685690078C007FD
:1004E00007D170BDD4E9012120209047206A401C2B
:1004F00020626D1EF6D570BD09684A0501D540B26F
:100500007047C905FCD500B2704709684A0501D596
:10051000C0B27047C905FCD580B2704770B50C46B3
:100520000546012A05D02878800600D5EA6900230F
:1005300002E0012305E05B1C934202D2E05C00284C
:10054000F9D1A869E618C01AA861286A1844286277
:100550002846FFF7AAFF04E0D5E9012114F8010BB2
:100560009047B442F8D32846FFF7B5FF70BD0000AE
:100570002DE9F0410646002410687529314616A57C
:1005800010D0FFF7B9FF002802DA404213A507E0B8
:1005900031688A0701D512A502E0490704D511A5E3
:1005A000012401E0FFF7B1FF00210A2206F1240730
:1005B00009E0B0FBF2FCB0FBF2F302FB1C003030B0
:1005C00078541846491C0028F3D123462A46304661
:1005D000BDE8F04100F093BA000000002D000000DB
:1005E0002B0000002000000011680268006A53051B
:1005F00001D508700AE0D30501D5088006E013068E
:1006000003D5C217C1E9000200E00860012070476D
:1006100001694A1C02610878704700B58FB0CDE9C6
:1006200001310021059105497944CDE903101146B6
:10063000684600F029F90FB000BD0000E5FFFFFF9C
:100640000A6802F8010B0A60704700002DE9FF5F9D
:1006500015468A460446DFF8AC80F8440027D8E9FE
:1006600000103E46CDE9001010E03AF816106A4638
:1006700002A800F055FE411C07D02178890603D559
:10068000E269391891420DD80744761C207880061B
:1006900002D5E069B84205DDAE42E6DB3AF8160065
:1006A0000028E2D1A069C01BA0612046FFF7FDFE33
:1006B000D8E90010CDE90010002017E03AF8181032
:1006C0006A4602A800F02CFEB0F1FF3F81460BD035
:1006D00000250DF1080B05E0D4E901211BF8050008
:1006E00090476D1C4D45F7D308F10100B04280469C
:1006F000E4DB206A384420622046FFF7ECFEBDE8C8
:10070000FF9F0000862600002DE9F0418046D21DA3
:1007100022F007020025D2E90002F52915A614D01F
:10072000011E72F1000106DA0023D0EB030063EB37
:10073000020211A608E0D8F800108B0701D50FA619
:1007400002E0490701D50EA601251146002408F153
:10075000240704E000F08EF930323A55641C50EA68
:100760000102F7D12B46324621464046BDE8F04112
:1007700000F0C5B9000000002D0000002B000000B3
:100780002000000030B4002100F1240408E002F051
:100790000705D208303542EA4372DB086554491C2C
:1007A00052EA0305F3D10468002310A2250708D5F7
:1007B00004F020040C4304D0C46901230CA2641E7D
:1007C000C46130BC00F09BB910B5044621461068E6
:1007D000FFF79BFE02462046BDE810400023D1E70C
:1007E000D21D22F00701D1E90023CBE70000000071
:1007F00030000000F0B40D460188090502D5214CF7
:100800007C4402E01F4C7C440E34002100F124069D
:1008100008E002F00F071209E75D42EA03721B09C4
:100820007754491C52EA0307F3D1027800231207D8
:1008300004D5702D06D009B1022311342246F0BC34
:1008400000F05DB901231034F8E770B504460D4699
:1008500021461068FFF759FE024629462046BDE8AA
:1008600070400023C6E7D21D22F00703D3E900231E
:10087000C0E70368126843F0200303600823C361E4
:100880000023B7E7E82400002DE9F05F894604461D
:100890004FF0000ADFF874B1FB44C0F820A02046F6
:1008A000E1688847002874D0252806D0D4E90121C2
:1008B0009047206A401C2062F1E700265F462046F0
:1008C000E16888472028054607DB312D05D27819D5
:1008D00010F8200C08B10643F1E7B00701D526F067
:1008E0000406C4F81CA00027C4F818A02A2D09D0BB
:1008F000284602F0B1F938B304EB8708303DC8F858
:10090000185019E059F8041B204604EB8702916146
:10091000E1688847012F054618D1E069002820DAF0
:1009200026F020061DE0D8F8180000EB800005EB4B
:1009300040003038C8F818002046E168884705466E
:1009400002F08AF90028EED1012F0AD02E2D08D10D
:100950002046E16888477F1C0546022F46F02006A6
:10096000C4DBA069002803DA404246F00106A0611A
:10097000F00701D026F010066C2D0BD0682D09D0A1
:100980004C2D39D06A2D35D0742D35D07A2D33D0F9
:1009900016E038E0E1682F4620468847B842054611
:1009A00009D16C2F26D04FF48060E16806432046C1
:1009B0008847054604E06C2F1AD04FF48070064338
:1009C0000DB3A5F14100192802D8203546F4006680
:1009D0004A462946204626604E46FFF75DFC80B118
:1009E00001280BD0F61D26F0070000F1080956E794
:1009F0004020E4E78020D8E70020D6E706F104098C
:100A00004DE7284652E7206ABDE8F09F78240000B1
:100A100010B5203AC0F00B80B1E81850A0E818508B
:100A2000B1E81850A0E81850203ABFF4F5AF5FEADB
:100A3000027C24BFB1E81850A0E8185044BF18C980
:100A400018C0BDE810405FEA827C24BF51F8043B27
:100A500040F8043B08BF7047D20728BF31F8023B7B
:100A600048BF11F8012B28BF20F8023B48BF00F80F
:100A7000012B704730B5B0F10A0271F100034FEA63
:100A8000900E4EEA817EB0EB0E0061EB91014FEAD1
:100A9000101E4EEA017E10EB0E0041EB11114FEAE1
:100AA000102E4EEA016E10EB0E0041EB11214FEAC1
:100AB000104E4EEA014E10EB0E0041EB1141401872
:100AC00041F100014FEAD00040EA41704FEAD10104
:100AD0004FEA810444EA907410EB800544EB010472
:100AE0006D1944EB0404521BA3414FF0000348BFAF
:100AF0000A3200D530BD401C41F1000130BD2DE966
:100B0000F0470D4699469246044600F124080168D4
:100B1000880604D5E06921F01001216000E0012081
:100B2000A84201DD471B00E00027A1697A1902EB0A
:100B30000900081AA0612078C00602D42046FFF7F9
:100B4000B4FC002608E0D4E901211AF80600904719
:100B5000206A401C761C20624E45F4DB2078C006DB
:100B60000AD52046FFF7A1FC06E0D4E90121302098
:100B70009047206A401C2062381EA7F10107F4DC70
:100B800007E0D4E9012118F805009047206A401CCD
:100B90002062281EA5F10105F3DC2046FFF79BFC2F
:100BA0002078000602D50220BDE8F0870120FBE78F
:100BB0002DE9FF4F0C461E464FF0FF378BB0D2E9B0
:100BC0000001DDF860800A908A46C1F30A5505B934
:100BD0003D46002108464FF00000BAF1000F00F436
:100BE000400005DA00EB80004FF4400101EA5000BC
:100BF0004FEA9059B9F1010F00DDB9460A9850EA61
:100C00004A000ED044F61050A5F2FF3545432F148C
:100C1000B8F1000F1ED07542291E1EDDC9F1000279
:100C20001CE0B8F1010F4FF0000001D0302103E0CB
:100C3000F24305E02154401CB042FBDB3046002269
:100C4000002121540B99C1F80880C1E900200FB0A0
:100C5000BDE8F08FBD1B6D1CDEE74A4600DA694235
:100C600006A800F0F3FB06AB93E8070003AB83E8AC
:100C7000070050460A9901F00FFC8DE80700A0F527
:100C800000501F3800900398002D0ADD42F21F012A
:100C90004A460844002303A90390684601F078FE01
:100CA00009E0A0F500504A461F38002303A903902D
:100CB000684601F082FE8DE807000004000C03D0B6
:100CC0004FF0FF30410800E01046B8F1000F03D0AC
:100CD0000022009215461EE0751E05D4FFF7CAFEDD
:100CE000303262556D1EF9D5B3460122084302D059
:100CF00000227F1C04E02078302801D100227F1ED2
:100D0000002A099784D01DE0112D07DAFFF7B2FE03
:100D1000303262556D1C50EA0102F5D1084302D011
:100D20000098C8B10EE00021681E05E0235C625CFB
:100D300063542254401E491C8142F7DBAB46A81B7A
:100D4000401E0990002004F80B000B98099AC0F887
:100D50000880C0E9002B7AE711264FF0000857E71A
:100D60002DE9F04F88460446D21D22F0070191B0CC
:100D7000D1E90001CDE90A0101F056FF02460B98C6
:100D8000C00F01D02D2007E02068810701D52B205E
:100D900002E0202101EAC000032A099001D0072ABD
:100DA00005DB03464146204600F010FB0BE12078AE
:100DB000800601D5E06900E00620B8F1650F8146A4
:100DC00006D0B8F1660F18D0B8F1670F70D131E0D6
:100DD0000020B9F1110F009001DB112301E009F1AE
:100DE00001030AAA01A90CA8FFF7E2FEDDE90C70D5
:100DF000002609F10105834647E001204B4600909B
:100E00004FF000470AAA01A90CA8FFF7D1FEDDE9BF
:100E10000DB00C995D46002610B909F101000D18BE
:100E2000B9EB050003D4C0F1FF3609F10105A5EBCC
:100E300009002BE0B9F1010F01DA4FF001090020A0
:100E4000B9F1110F0090484601DD112300E003467F
:100E50000AAA01A90CA8FFF7ABFEDDE90C704D460C
:100E600000268346207800070AD4AB4500DA5D46A9
:100E700001A8012D04DD411911F8011C302907D00A
:100E80004F4502DA17F1040F04DA012082460FE021
:100E90006D1EEEE7002F02DCED1B3E4403E0781CE4
:100EA000A84200DD7D1CB81B00F1010A4FF000478D
:100EB0002078000703D4AA4501DB4FF0FF3A002158
:100EC000B7F1004F0DF143088DF8431024D00220F4
:100ED0002B23002F01DA7F422D230A21021EA0F1CD
:100EE000010000DC5FB197FBF1FC97FBF1F201FB25
:100EF0001C7C17460CF1300C08F801CDEEE7A8F188
:100F0000010003702188090501D5452100E0652114
:100F1000A0F1010800F8011C09980FA9A1EB08072E
:100F2000FF1D00B10120411901EBEA70A1693844AD
:100F3000081A401EA0612078C00602D42046FFF7A0
:100F4000B4FA099828B1D4E901219047206A401CDD
:100F500020622078C00622D52046FFF7A6FA1EE0C0
:100F6000002E04DBB34502DD01A8805D00E03020E7
:100F7000D4E901219047206A401C2062761CAAF126
:100F800001005FEA000A0AD100F01CFAC06801689B
:100F9000405CD4E901219047206A401C2062281E51
:100FA000A5F10105DCDC07E0D4E9012118F8010B0B
:100FB0009047206A401C2062381EA7F10107F3DC2D
:100FC0002046FFF788FA032011B041E62DE9F04FE3
:100FD00004460D46D21D22F0070089B0D0E90097E3
:100FE0004846394601F020FE0246F80F01D02D2375
:100FF00007E02068810701D52B2302E0202101EAC8
:10100000C0038DF820300BB1012000E00020032A3E
:10101000824601D0072A04DB2946204600F0D6F993
:101020003FE12078800601D40D2500E0E569C7F393
:101030000A560D2D49DA00214FEA175B08464FF09A
:101040000000002F00F4400007DA00EB80004FF4AE
:10105000400100EBD07001EA60008115012901DD3B
:101060004FF0FF3100224FEA850CBCF1180F06D378
:101070001346ACF118004FF08052C24003E04FF429
:10108000801323FA0CF30CF10C0CBCF1200F04D3E9
:10109000ACF1200C09FA0CF001E007FA0CF0002981
:1010A0004FF0004801DD18B90FE00ED140450CD3D8
:1010B00019EB02095F4121B9404502D19F4329EA5A
:1010C0000209BBEB175F00D0761C2088000502D513
:1010D0007B48784402E07A487844193808AA3023DB
:1010E00002F80A30037C0AF10101002E0AF1020A1B
:1010F00053546A4602DC4FF0300101E04FF03101F9
:101100004FF001088DF8001002D0A6F2FF3603E080
:1011100059EA470100D06B4E002D02DC2178090707
:1011200004D54FF002082E218DF80110C44600218D
:101130000BE0C7F303433F01C35C491C6D1E02F87B
:101140000830052908F1010801DA002DF1DC002141
:101150000CE000EB1973491C1B786D1E082902F87E
:1011600008304FEA091908F1010801DA002DF0DC16
:1011700021688B0602D516E0A8F10108E04505DDDF
:1011800002EB080313F8013C302BF5D0B8F1000F47
:1011900009DD02EB080313F8013C2E2B03D10907EC
:1011A00001D4A8F10108002D05DD3E2102F8081048
:1011B0006D1E08F10108407C002E02F8080008F1BD
:1011C000010804DA2D20764202F8080002E02B2004
:1011D00002F808000A214FF47A70864208F10108EB
:1011E0000BDB96FBF0F3303302F8083096FBF0F39C
:1011F00008F1010800FB136601E0642E0CDB64209B
:1012000096FBF0F3303302F8083096FBF0F308F168
:10121000010800FB136601E00A2E06DB96FBF1F0E5
:10122000303002F8080008F1010896FBF1F001FBEC
:101230001060303002F80800A16908F1010808EBDD
:10124000050202EB0A00081AA0612078C00602D449
:101250002046FFF72AF9216A08AE01EB0A00206256
:1012600004E0D4E9012116F8010B9047BAF1010A14
:10127000F7D22078C00602D52046FFF716F96E4651
:1012800009E016F8010B3E280FD0D4E90121904760
:10129000206A401C2062B8F10108F2D22046FFF714
:1012A0001AF909B00320BDE8F08F206A28442062B3
:1012B00003E0D4E90121302090476D1EEBD3F8E71D
:1012C000621C000002FCFFFF10B5436913B1AFF3CD
:1012D000008001E0FFF722F9012010BD127800F133
:1012E00024010A7000224A700122EDE711684FF0D4
:1012F000FF32E9E710B5436913B1AFF3008001E0B5
:10130000FFF7A4F9012010BD128800F124018284A6
:101310000022C2840122EDE711684FF0FF32E9E7B5
:101320002DE9F04116460C46054600F043F80368E7
:1013300093F80101012807D0FF2C12D8185D80B165
:1013400001202C70BDE8F081D3F807013246214618
:1013500003F20713C7182846BC46BDE8F041002336
:1013600060474FF0FF30EDE7754600F0EBF8AE4612
:1013700005006946534620F00700854618B020B5A1
:10138000FFF704F8BDE820404FF000064FF00007DB
:101390004FF000084FF0000BAC46ACE8C009ACE8D9
:1013A000C009ACE8C009ACE8C00921F007018D46CE
:1013B0007047000010B500F005F8001D10BD00BF1B
:1013C000D518000000487047600102202DE9F04167
:1013D0001F46044603260168072A01F4006004DB67
:1013E00008B116A505E016A503E008B115A500E0B3
:1013F00015A521F010002060A069C01EA0610FB1EA
:10140000401EA0612046FFF750F84FB1D4E90121FA
:1014100038469047206A401C2062C01C206206E0CB
:10142000206AFAE7D4E9012115F8010B9047761EEE
:10143000F8D22046FFF74FF8BDE8F0814E414E004C
:101440006E616E00494E4600696E66002DE9F047F8
:10145000814616468AB0354878440DC88DE80D009F
:1014600032487844801C03AC0DC884E80D0041F676
:101470009B300844372190FBF1F290FBF1F5A5F188
:10148000800501FB12041B3C02D56442012000E0F0
:101490000020DFF898A080460027FA44AAF1BE0A8F
:1014A0000EE0E0070AD03246684607EB4701012309
:1014B0000AEB810101F081FA8DE8070064107F1CBE
:1014C000002CEED1194F7F44AE3F19E0E80715D04C
:1014D00007EB04100DF1180A90E80E008AE80E00E0
:1014E000C068F04201D1981908903246012306A93C
:1014F00003A801F062FA03AB83E807006D10641CD7
:10150000002DE3D14FF0010332466946B8F1000FD8
:1015100003A802D001F03CFA01E001F04EFAC9E95B
:101520000001C9F808200AB0BDE8F0876C19000076
:1015300010B50446AFF300802046BDE81040FEF72A
:1015400010BF00000048704740010220000000006A
:1015500030B44FF0013C50F8042BCCFA52F451F85F
:10156000043BD51A20D1FCB950F8042BCCFA52F424
:1015700051F8043BD51A17D1B4B950F8042BCCFA62
:1015800052F451F8043BD51A0ED16CB950F8042B23
:10159000CCFA52F451F8043BD51A05D1002CDAD01C
:1015A00030BC4FF00000704729BAB1FA81F111F058
:1015B0001801D1F120008440F2D1CA40CB4012F092
:1015C000FF0213F0FF0330BCD01A70470149182006
:1015D000ABBEFEE7260002007047000000000000DE
:1015E00043F61441C4F20101086840F40050086059
:1015F00040F21441C4F20201086880F00100086062
:1016000040F61000C4F20200006800F4005101200E
:10161000B0EB513F07D1FFE740F2C211C2F2020125
:1016200001200870FFE770474EF68851CEF20001A6
:10163000086840F4700008604EF60851CEF20001D0
:101640004FF000600860704744F61C00C4F20000D0
:10165000006800F020010120B0EB511F1ED1FFE710
:1016600044F62400C4F20000016840F2C010C2F247
:1016700002000170007848280FD1FFE740F21441C2
:10168000C4F20201086880F00100086040F2C21153
:10169000C2F2020101200870FFE7FFE77047000077
:1016A00080B582B0019000200090FFE7009801997A
:1016B000884209D2FFE74FF47A5000F06DF9FFE756
:1016C000009801300090F1E702B080BD00000000FA
:1016D00010B58AB040F2C112C2F2020209920C2087
:1016E0000021012300F040FA0998007848280CD026
:1016F000FFE740F2EB00C2F202000890FEF76EFE38
:101700000146089800F08CF90BE040F22510C2F277
:1017100002000790FEF762FE0146079800F080F98C
:10172000FFE740F2B812C2F20202049200200190D8
:1017300010700C2003900A2106910123059300F0FC
:10174000E3FA0698FFF7ACFF0398049A059B069905
:101750004FF00F0C82F800C000F0D6FA0698FFF7A1
:101760009FFF039840F2B512C2F2020202921021CA
:10177000032300F0F9F9DDF804C00398049A059BEF
:101780000699DDF808E09EF80040803C00EE104A23
:10179000B8EEC00BB6EE003B20EE034B9FED282BBE
:1017A000B7EE000BB0EE401B04EE021BB7EEC11B00
:1017B00040F2CC14C2F2020484ED001A9EF80140FB
:1017C000803C01EE104AB8EEC11B21EE034BB0EE97
:1017D000401B04EE021BB7EEC11B40F2D014C2F254
:1017E000020484ED001A9EF802E0AEF1800E01EED4
:1017F00010EAB8EEC11B21EE031B01EE020BB7EE9F
:10180000C00B40F2D41EC2F2020E8EED000A82F826
:1018100000C000F079FA0698FFF742FF0398049A97
:10182000059B06994FF0160C82F800C000F06CFA88
:101830000698FFF735FF0AB010BD00BF00BF00BF1C
:10184000000000000000803F80B582B040F2C1126D
:10185000C2F2020201920C200221012300F084F95D
:1018600001980078C007002800F08A80FFE740F266
:10187000AE12C2F2020200920C200321072300F0F4
:1018800073F9009880790007002878D4FFE740F2C8
:10189000AE13C2F202031878597840EA012040F2F0
:1018A000F012C2F2020210809878D97840EA012042
:1018B00040F2F211C2F20201088018795B7940EA25
:1018C000032340F2F410C2F202000380B2F90020B8
:1018D00000EE102AB8EEC00B9FED2B2B20EE020B72
:1018E0009FED2B1B80EE010B40F2CC12C2F20202E4
:1018F00092ED003AB7EEC33A20EE030BB7EEC00B01
:1019000040F2D812C2F2020282ED000AB1F90010D0
:1019100000EE101AB8EEC00B20EE020B80EE010BA9
:1019200040F2D011C2F2020191ED003AB7EEC33A93
:1019300020EE030BB7EEC00B40F2DC11C2F2020145
:1019400081ED000AB0F9000000EE100AB8EEC00BFD
:1019500020EE020B80EE010B40F2D410C2F2020026
:1019600090ED001AB7EEC11A20EE010BB7EEC00BD6
:1019700040F2E010C2F2020080ED000AFFE7FFE74C
:1019800002B080BD00BF00BF000000000030B340C7
:101990000000000000FEDF4081B000900098013898
:1019A0004EF21401CEF2000108604EF21801CEF2A0
:1019B000000100200860FFE74EF21000CEF20000A8
:1019C000006800F480310020B0EB114F01D1FFE737
:1019D000F2E701B07047000080B584B040F2B81261
:1019E000C2F20202019200201070682000906A2169
:1019F0000123029300F088F90A200390FFF750FEBC
:101A00000098019A029B02211170372100F07CF9A5
:101A10000398FFF745FE04B080BD00000000000001
:101A200082B00190009140F2C811C2F20201002080
:101A30000870FFE740F2C810C2F202000078009977
:101A4000884220DAFFE70198007844F62801C4F2C2
:101A500000010860019801300190FFE744F61C0086
:101A6000C4F200000068C1B20020B0EBD11F01D168
:101A7000FFE7F3E7FFE740F2C811C2F2020108787E
:101A800001300870D6E744F62801C4F200010D20A9
:101A90000860FFE744F61C00C4F200000068C1B211
:101AA0000020B0EBD11F01D1FFE7F3E702B0704790
:101AB00040F22441C4F200010020086040F20041DD
:101AC000C4F20001086840F001000860FFE740F23E
:101AD0002440C4F20000006841F6AF41884201D8BA
:101AE000FFE7F4E740F20041C4F20001086820F08B
:101AF0000100086040F2C811C2F202010020087023
:101B0000FFE740F2C810C2F20200007807282ADC82
:101B1000FFE740F22441C4F200010020086040F2D7
:101B20000041C4F20001086840F001000860FFE7CE
:101B300040F22440C4F200000068C0097C2801D8AB
:101B4000FFE7F5E740F20041C4F20001086820F029
:101B500001000860FFE740F2C811C2F202010878F4
:101B600001300870CDE7704786B08DF817008DF80A
:101B7000161004928DF80F3045F20441C4F20001B2
:101B80000191086840F2FF32904308609DF81720E9
:101B9000086840EA42000860086820F48060086035
:101BA000086820F47F000860086840F4803008600E
:101BB000086820F000700860086840F40050086071
:101BC00048F2A060C0F201000290FFE745F2184021
:101BD000C4F20000006800F00200022807D0FFE70E
:101BE00002980138029008B9FFE789E0EEE79DF816
:101BF000160045F22841C4F20001086048F2A060D6
:101C0000C0F201000290FFE745F21840C4F2000064
:101C1000006800F04000402807D0FFE70298013834
:101C2000029008B9FFE76BE0EEE745F20441C4F229
:101C300000010091086840F480600860086820F4A2
:101C40007F0008609DF80F20086840EA02400860A5
:101C5000086820F000700860086840F400500860D0
:101C60009DF80F008DF80E00FFE79DF80E0001288B
:101C700027DBFFE748F2A060C0F201000290FFE717
:101C800045F21840C4F20000006800F00400042887
:101C900007D0FFE702980138029008B9FFE72FE06C
:101CA000EEE745F22440C4F2000000680499087091
:101CB0000498013004909DF80E0001388DF80E0054
:101CC000D3E745F20441C4F20001086840F48040C3
:101CD000086048F2A060C0F201000290FFE745F200
:101CE0001840C4F20000006800F02000202807D04F
:101CF000FFE702980138029008B9FFE700E0EEE73D
:101D000006B070470000000085B08DF813008DF814
:101D1000121003928DF80B3045F20441C4F2000119
:101D20000091086840F2FF32904308609DF813204C
:101D3000086840EA42000860086820F48060086093
:101D4000086820F47F0008609DF80B00421C0868BA
:101D500040EA02400860086840F0007008600868C7
:101D600040F40050086048F2A060C0F20100019009
:101D7000FFE745F21840C4F20000006800F00200DE
:101D8000022807D0FFE701980138019008B9FFE762
:101D90004FE0EEE79DF8120045F22841C4F2000141
:101DA00008609DF80B008DF80A00FFE79DF80A0017
:101DB000012827DBFFE748F2A060C0F20100019094
:101DC000FFE745F21840C4F20000006800F002008E
:101DD000022807D0FFE701980138019008B9FFE712
:101DE00027E0EEE70398007845F22841C4F20001AD
:101DF00008600398013003909DF80A0001388DF8BF
:101E00000A00D3E748F2A060C0F201000190FFE7AA
:101E100045F21840C4F20000006800F020002028BD
:101E200007D0FFE701980138019008B9FFE700E00B
:101E3000EEE705B07047000081B08DF803009DF912
:101E4000030000280ED4FFE79DF9031001F01F02E4
:101E5000012090404A094EF20011CEF2000141F8F3
:101E60002200FFE701B07047F0B581B02DED048B83
:101E7000BEB000202F903D9043F63005C4F202051D
:101E8000286840F00600286040F20044C4F20204D2
:101E9000206843F6FC72CFF6FF7210402060206885
:101EA00044F201010843206040F60001C4F202013F
:101EB000086820F04060086040F20441C4F202016A
:101EC0002E91086820F08100086040F20841C4F2B9
:101ED00002012A9108684CF203031843086040F697
:101EE0000801C4F20201086840F04060086040F256
:101EF0000C41C4F202012B9108681040086040F6C2
:101F00000C01C4F20201086820F040600860086813
:101F100040F0006008604EF21401CEF200016FF054
:101F20007F4008604EF21001CEF20001086840F0D8
:101F30000500086043F64401C4F20201086840F459
:101F40008040086043F61401C4F20101086820F0E3
:101F5000F0000860086840F02000086043F6004187
:101F6000C4F20101086840F40050086043F60841DB
:101F7000C4F20101086840F4005008602820FFF70F
:101F80005BFF286840F00800286040F60041C4F27A
:101F90000201086840F42020086040F62441C4F2A1
:101FA0000201086840F07700086043F64001C4F27F
:101FB00002012C91086840F48020086044F60C016E
:101FC000C4F2000140F28360086044F60001C4F2EC
:101FD00000012D91086840F02C0008602720FFF7D1
:101FE0002BFFDDF8A8C02B9A2C9B2D99DDF8B8E0CB
:101FF000286840F002002860206840F4202020601B
:10200000DEF8000040F44070CEF80000DCF800007C
:1020100040F47020CCF80000106840F4A02010605C
:1020200040F22442C4F20202106840F04400106002
:10203000186840F40010186043F69002C4F20202DF
:10204000106840F40030106045F20042C4F2000213
:10205000106820F00100106045F2104CC4F2000C32
:10206000DCF8000040F6137EC3F2420E40EA0E0098
:10207000CCF80000106840F001001060186840F0D3
:102080000200186040F22842C4F2000218201060DA
:1020900040F22C4CC4F2000C4FF6FF12CCF800209A
:1020A0001A6842F008021A6040F62842C4F20002A0
:1020B000106040F62C42C4F2000249F28060C0F287
:1020C00098001060086840F0010008604FF47A70D2
:1020D000FFF7E6FA2F9840F2B812C2F2020210702F
:1020E000682031906B210123FFF70EFE40F20000C3
:1020F000C2F202003090FEF771F901463098FFF706
:102100008FFC319840F2C112C2F202023292752164
:102110000E23FFF729FD32980078712824D0FFE7BD
:1021200040F23C00C2F202002890FEF757F9014647
:102130002898FFF775FC40F2C110C2F20200027845
:1021400040F25F00C2F20200299042F61861C0F628
:102150000001FEF72DF92998FEF740F9014629986C
:10216000FFF75EFCFFE7FEE740F29600C2F20200D6
:102170002690FEF733F901462698FFF751FC40F20E
:10218000BE00C2F202002790FEF728F90146279808
:10219000FFF746FCFFE76420FFF782FA40F2B8122F
:1021A000C2F20202239200201070682022901B21AC
:1021B00001232493FFF7A8FD2298239A249B1C2136
:1021C000FFF7A2FD0A202590FFF76AFA2298239ACA
:1021D000249B0321219111701A21FFF795FD259869
:1021E000FFF75EFA21992298239A249B11701D21F2
:1021F000FFF78AFD2598FFF753FAFFF7EDFB2598C7
:10220000FFF74EFAFFF764FA2598FFF749FAFFE760
:1022100040F2C210C2F202000078012840F036817C
:10222000FFE740F2C211C2F202010020087040F242
:10223000C411C2F202010120086042F62261C0F618
:1022400000010DF1CE0020902622FEF7E6F820983E
:10225000FEF7C4F801462098FFF7E2FBFFE740F6DF
:102260002441C4F2000117910020086040F60041AB
:10227000C4F200011691086840F00100086040F2C5
:10228000A012C2F20202159268203B210E23FFF732
:102290006BFC15980278417841EA022140F2E4147F
:1022A000C2F2020421808278C17841EA022140F220
:1022B000E612C2F202021C9211800279417941EACF
:1022C000022140F2E812C2F20202189211808279D1
:1022D000C17941EA022140F2F612C2F202021180F3
:1022E000027A417A41EA022140F2EA12C2F2020283
:1022F00019921180827AC17A41EA022140F2EC12ED
:10230000C2F202021A921180017B407B40EA012056
:1023100040F2EE11C2F202011B910880FFF7C8FBE8
:10232000169A1798116821F00101116090ED000ACA
:10233000B8EE400B9FED561B20EE010BB7EEC00B25
:1023400040F27025C2F2020585ED000A95ED001AF3
:1023500040F2BC10C2F2020090ED000A30EE010A19
:1023600080ED000AFFF770FADDF860C0199B1A993A
:102370001B98DDF870E040F2C417C2F202071F9705
:102380003A68561C3E6095ED000AB7EEC06AB4F993
:10239000004000EE104AB8EEC00AB7EEC00ABEF91F
:1023A00000E001EE10EAB8EEC11AB7EEC11ABCF9AE
:1023B00000C002EE10CAB8EEC22AB7EEC22AB3F9C4
:1023C000003003EE103AB8EEC33AB7EEC33AB1F9B3
:1023D000001004EE101AB8EEC44AB7EEC44AB0F9C1
:1023E000000005EE100AB8EEC55AB7EEC55A40F225
:1023F000D810C2F2020090ED007AB7EEC77A40F230
:10240000DC10C2F2020090ED008AB7EEC88A40F2FA
:10241000E010C2F2020090ED009AB7EEC99A684649
:102420001D9080ED129B80ED108B80ED0E7B80ED7A
:10243000006B80ED0C5B80ED0A4B80ED083B80ED7E
:10244000062B80ED041B80ED020B40F2F810C2F267
:1024500002001E9042F6E051C0F60001FDF7A8FF11
:102460001E98FDF7BBFF01461E98FFF7D9FA1F988B
:102470000068B0F5967F07DDFFE740F2BC11C2F2BD
:1024800002010020086000E0E9E6FFE7C0E600BFC7
:102490008DEDB5A0F7C6703E5FEA400C08BF91F025
:1024A000000F4FEA8C234FEAC12243EA51514FEA11
:1024B0001C5018BF00F5F0404FEA300018BF41F043
:1024C00000415FEA6C5C00F02980BCF1FF3F08BF6F
:1024D00040F080407047130C06BF12044FF0100C00
:1024E0004FF0000C130E04BF12020CF1080C130F76
:1024F00004BF12010CF1040C930F04BF92000CF105
:10250000020CD30F04BF52000CF1010C11464FF026
:102510000002A0F11F00A0EB0C00704711F0004F6B
:1025200008BF704731F000413FF4D5AF0B0C06BF38
:1025300009044FF0100C4FF0000C0B0E04BF090201
:102540000CF1080C0B0F04BF09010CF1040C8B0FEC
:1025500004BF89000CF1020CCB0F04BF49000CF141
:10256000010CCCF1200322FA03F341EA030102FA41
:102570000CF2A0EB0C0000F10100704723F07F4744
:1025800020F07F4C80EA030000F00040ACEB070332
:1025900003F57C5303F1FF032DE9804909B44FEAA9
:1025A000144324EA03484FEA154B25EA0B4E0FF279
:1025B000042606EB13273E7803FB0667C7F50007E2
:1025C00007FB06F64FEAD64606F102064FEA5437F5
:1025D00007FB066CCCF1005C4FEA1C472CEA074C69
:1025E0000CFB06F507FB06F404EB15464FEA9616BE
:1025F00049085FEA320234BF00204FF000404FEA42
:10260000D13706FB07FC4FEA1C4C0CFB0BF7D21B27
:1026100003FB0CF761EB07010CFB0EF7B0EB074077
:1026200072EB17420CFB08F734BFA2EB0742B2EB88
:10263000074261EB17414FEA0C444FEA910706FB52
:1026400007FC4FEA1C4C0CFB0BF7B0EBC74072EBDE
:10265000573203FB0CF734BFA2EBC742B2EBC742C1
:1026600061EB57310CFB0EF7B0EBC70072EB577202
:102670000CFB08F734BFA2EBC702B2EBC70261EB59
:1026800057714FEA816141EA92114FEA826242EA50
:1026900090124FEA806004EBCC04039F4FEAD137DD
:1026A00006FB07FC4FEA1C4C0CFB0BF7D21B03FB91
:1026B0000CF761EB07010CFB0EF7B0EB074072EB78
:1026C00017420CFB08F734BFA2EB0742B2EB0742FC
:1026D00061EB17414FEA8C5504EB9C244FEA9107BC
:1026E00006FB07FC4FEA1C4C0CFB0BF7B0EBC7409A
:1026F00072EB573203FB0CF734BFA2EBC742B2EBCD
:10270000C74261EB57310CFB0EF7B0EBC70072EB21
:1027100057720CFB08F734BFA2EBC702B2EBC7023B
:1027200061EB57714FEA816141EA92114FEA82628F
:1027300042EA90124FEA806015EB4C2544F1000408
:102740004FEAD13706FB07FC4FEA1C4C0CFB0BF79A
:10275000D21B03FB0CF761EB07010CFB0EF7B0EB90
:10276000074072EB17420CFB08F734BFA2EB07429D
:10277000B2EB074261EB17414FEA813141EA9241E6
:102780004FEA823242EA90424FEA80304FEA0C76BA
:1027900015EB1C1544F1000448EA03434EEA0B48CC
:1027A0004FF0000EB2EB080C71EB030724BF62463A
:1027B00039464EEB0E0E4FF0000B001852414941C6
:1027C0004BEB0B0BB2EB080C71EB03077BF1000B2F
:1027D00024BF624639464EEB0E0E4FF0000B001838
:1027E000524149414BEB0B0BB2EB080C71EB030769
:1027F0007BF1000B24BF624639464EEB0E0E51EAC8
:10280000020718BF46F0010616EB0E7655F10002DE
:1028100054F1000103D5BDE88901BDE80088BDE899
:102820008901BDE80048B619524141EB0101A3F10D
:102830000103704780807F7E7D7C7B7A7978777614
:1028400076757473727171706F6E6E6D6C6C6B6A8D
:102850006A6968686766666564646363626161602B
:10286000605F5F5E5E5D5D5C5C5B5B5A5A595958A8
:102870005857575656555555545453535252525112
:10288000515050504F4F4F4E4E4D4D4D4C4C4C4B68
:102890004B4B4A4A4A4949494848484747474746AF
:1028A00046464545454444444443434343424242EB
:1028B000424141419C46002B30D477002BD04FEA57
:1028C00037071CB503B44FF010004FF01001BAF1F8
:1028D000000F06D0BCF1000FDCBF40F0080040F054
:1028E00008014FF000000FBCBDE810400BF1010BD8
:1028F000BBF1010F08BF5FEA170722BF12F1010207
:1029000011F101014FF0004143F1000300F00040DC
:1029100043EA00007047F9D35708D0E746EA064675
:102920004FEA164613F1400F1FDD13F1200FDFBFF2
:1029300016430A46002120335B42BED0C3F1200774
:1029400046EA06464FEA164602FA07F746EA07063F
:1029500022FA03F2C3F1200701FA07F742EA07025D
:1029600021FA03F14FF00003A7E746EA020646EA20
:1029700006464FEA164646EA0106BCBF46EA064648
:10298000360C4FF000034FF000024FF0000194E7C7
:102990002DE9804C70B49A46934691E8380007C8F8
:1029A00031EA400C48BF34EA430C03D5FFF7E6FD9B
:1029B000FFF780FFF0BCBDE8008C2DE9804C70B4BF
:1029C0009A46934691E8380007C810F0804F08BF38
:1029D00013F0804F03D100F005F8FFF76BFFF0BC58
:1029E000BDE8008C20F07F4723F07F4C80EA030095
:1029F00000F0004007EB0C03A3F57C53A3F1FE03AA
:102A000092F0000F00F0B38095F0000F00F0778097
:102A10002DE901494FEA114021EA00484FEA1446E6
:102A200024EA064700FB06FC08FB06F607FB08F84D
:102A300018EB06484CEB164C00FB07F718EB074861
:102A40004CEB17404FEA124B22EA0B4E4FEA154669
:102A500025EA06470BFB06FC0EFB06F607FB0EFEFF
:102A60001EEB064E4CEB164C0BFB07F71EEB074E0E
:102A70004CEB174B18EB0B0840F1000018EB0E0B5A
:102A800058EB000840F100008F1A4FF000014FF0A2
:102A900000063CBFC943661B14BFB5EB040C002104
:102AA0003CBFC943F61B4FEA174427EA04454FEAE7
:102AB0001C472CEA074C04FB076205FB07F70CFBDD
:102AC00005F616EB074642EB174204FB0CFC16EB2F
:102AD0000C4642EB1C421BEB060658EB020241413E
:102AE0004EEA8E0E46EA9E0601D5BDE80189B6196A
:102AF000524141EB0101A3F10103BDE801894FEA15
:102B0000144524EA05464FEA114721EA074C05FB24
:102B100007F406FB07F70CFB06F111EB074144EB4A
:102B2000174405FB0CFC11EB0C4144EB1C444FEA31
:102B3000124722EA074C05FB07F206FB07F70CFBDE
:102B400006F616EB074642EB174205FB0CFC16EBAC
:102B50000C4642EB1C456A1854F1000148BF70470F
:102B6000B619524141EB0101A3F10103704795F001
:102B7000000F37D04FEA114221EA02464FEA1447CC
:102B800024EA074C02FB07F106FB07F70CFB06F4EF
:102B900014EB074441EB174102FB0CFC14EB0C4413
:102BA00041EB1C414FEA154725EA074C02FB07F5AC
:102BB00006FB07F70CFB06F616EB074645EB174539
:102BC00002FB0CFC16EB0C4645EB1C42121951F1B2
:102BD000000148BF7047B619524141EB0101A3F112
:102BE000010370474FEA144524EA05464FEA1147AE
:102BF00021EA074C05FB07F106FB07F70CFB06F281
:102C000012EB074241EB174105FB0CFC12EB0C42A7
:102C100051EB1C414FF0000648BF7047921841EB42
:102C20000101A3F10103704703B40198410000982A
:102C300050EAC12018BF04204A0D18BF40F001001F
:102C400040F2FF72B2EB515F08BF40F00200012872
:102C500008BF052002B0704730380A2801D2012091
:102C6000704700207047000010B500290AD008788E
:102C7000002807D005487844FEF76AFC002801D0F8
:102C8000002010BD0248784410BD0000F201000091
:102C9000EA01000010B500290AD00878002807D002
:102CA00005487844FEF754FC002801D0002010BDF0
:102CB0000248784410BD0000E2010000DA01000083
:102CC000F1EE100A4FF6FF71C0F2C03120EA0100A8
:102CD00040F04070E1EE100A7047FEF741B8FEF791
:102CE00075B90000000000000000000030313233F0
:102CF0003435363738394142434445464030580030
:102D00003031323334353637383961626364656661
:102D100040307800040000080000000000000002BD
:102D20000001000010303132333435363738396124
:102D3000626364656678700030313233343536371B
:102D40003839414243444546585000000240000093
:102D5000000000A00000000005400000000000C8C6
:102D6000000000000C4000000000409C000000003B
:102D7000194000000020BCBE0000000034400000EC
:102D8000BFC91B8E00000004B5400000504BCFD0DF
:102D90006607E2CF010000006C4100003E8251AAAC
:102DA000DFEEA73401000000D9420000DCB5A0E24C
:102DB0003A301F97FFFFFFFFB4450000FD25A0C874
:102DC000E9A3C14FFFFFFFFFFF3F000000000080AD
:102DD00000000000FF3F0000000000800000000035
:102DE000256420252E346620252E326620252E329D
:102DF0006620252E326620252E326620252E32664C
:102E000020252E326620252E326620252E32662081
:102E1000252E3266200A0D00257320252378200AEE
:102E20000D00426F746F6E20646574656374616435
:102E30006F2C20656E7472616E646F2061206C650A
:102E400065722E2E2E0A0D00942F0008000002201D
:102E5000400100005C020008D4300008400102205C
:102E6000380700007C0200081C000000430000003E
:102E7000F8FFFFFF0C0000000E0000000F00000034
:102E80002E0000001001000043000000F8FFFFFFCB
:102E9000004040404040404040404141414141406D
:102EA0004040404040404040404040404040404022
:102EB00040050202020202020202020202020202B1
:102EC00002202020202020202020200202020202B6
:102ED000020290909090909010101010101010100E
:102EE000101010101010101010101010020202021A
:102EF000020288888888888808080808080808085E
:102F00000808080808080808080808080202020259
:102F10004000000000000000000000000000000071
:102F200000000000000000000000000000000000A1
:102F30000000000000000000000000000000000091
:102F40000000000000000000000000000000000081
:102F50000000000000000000000000000000000071
:102F60000000000000000000000000000000000061
:102F70000000000000000000000000000000000051
:102F80000000000000000000000000000000000041
:102F900000000000544553544520444520434F4E03
:102FA0004558414F2050415241204F204749524FF0
:102FB00053434F50494F2045204F204143454C45F6
:102FC000524F4D4554524F200A0D000000000000A2
:102FD0004572726F20646520636F6E6578616F2043
:102FE000636F6D2061204D505536303530200A0D0D
:102FF0000000004F706161612E204575206E616F89
:1030000020736F752061204D5055363035302C209F
:103010005175656D20736F752065753F203A532E8D
:10302000204920616D3A00000000436F6E657861B1
:103030006F2062656D2073756365646964612063E8
:103040006F6D2061204D505536303530200A0D000F
:1030500000004F692C207475646F206A6F69613FAE
:103060002E2E2E20457520736F752061204D5055F2
:1030700036303530205844200A0D0000000000454D
:1030800072726F723A20414B38393633206E6F209E
:10309000656E636F6E747261646F20284275636C35
:1030A000652049324320706F6472696120636F6CE0
:1030B0006761727365290A0D004D61676E65746FF3
:1030C0006D6574726F20414B38393633204F4B2178
:0430D000200A0D00C5
:04000005080003717B
:00000001FF
