:020000040800F2
:10000000F007022071030008790300087B03000851
:100010007D0300087F030008810300080000000042
:100020000000000000000000000000008303000842
:10003000850300080000000087030008890300080A
:100040008B0300088B0300088B0300088B03000858
:100050008B0300088B0300088B0300088B03000848
:100060008B0300088B0300088B0300088B03000838
:100070008B0300088B0300088B0300088B03000828
:100080008B0300088B0300088B0300088B03000818
:100090008B0300088B0300088B0300088B03000808
:1000A0008B0300088B0300088B0300088B030008F8
:1000B0008B0300088B0300088B0300088B030008E8
:1000C0008B0300088B0300088B0300088B030008D8
:1000D0008B0300088B0300088B03000849150008F8
:1000E000F11400088B0300088B0300088B03000841
:1000F0008B0300088B0300088B0300088B030008A8
:100100008B0300088B0300088B0300088B03000897
:100110008B0300088B0300088B0300088B03000887
:100120008B0300088B0300088B0300088B03000877
:100130008B0300088B0300088B0300088B03000867
:100140008B0300088B0300088B0300088B03000857
:100150008B0300088B0300088B0300088B03000847
:100160008B0300088B0300088B0300088B03000837
:100170008B0300088B0300088B03000800000000BD
:100180008B0300088B0300088B0300088B03000817
:100190008B0300088B0300088B0300088B03000807
:1001A0008B0300088B0300088B0300088B030008F7
:1001B0008B0300088B0300088B0300088B030008E7
:1001C0008B0300088B030008000000008B0300086D
:1001D0008B0300088B0300088B0300088B030008C7
:1001E0008B0300088B0300088B0300088B030008B7
:1001F0008B0300088B03000800F002F800F0A8F859
:1002000014A696E8000CB244B344DA4501D100F0DC
:100210009FF8BAE80F000FA696E83000A5EB04059A
:1002200004EB0607AAEB0704A7F101074FEA15152F
:100230004FEA3414A4F10104AC4201D300F088F871
:1002400013F0010F18BFFB1A43F0010300F001F88F
:10025000DBE718477827000098270000103A24BFF2
:1002600078C878C1FAD8520724BF30C830C144BF1B
:1002700004680C60704700007047000000230024F1
:1002800000250026103A28BF78C1FBD8520728BFA6
:1002900030C148BF0B6070476E2900F05F81702944
:1002A00000F0A182662902F0A882652902F0A582E9
:1002B000672902F0A282612902F0A18203681B0A69
:1002C00028BF41F08001692900F00C81642900F009
:1002D0000981752900F006816F2900F02F827829A5
:1002E00000F06D82E92900F0C981E42900F0C6819F
:1002F000F52900F0C381EF2900F02C82F82900F0E5
:100300006C820368DB0928BF41F08001632900F09B
:100310006D87732900F07287E32900F07D87F32948
:1003200000F08287002070471FB502F059FA00F0F4
:10033000D1FF04000020002102F03CFA401C606064
:100340000020002102F020FAE0601FBD10B510BDB2
:1003500000F092FF1146FFF7E7FF01F05DFB01F0AF
:100360006FF803B4FFF7F2FF03BC01F0B7F8000029
:100370000948804709480047FEE7FEE7FEE7FEE739
:10038000FEE7FEE7FEE7FEE7FEE7FEE70448054975
:10039000054A064B7047000029150008F9010008BE
:1003A000F0010220F0070220F0030220F0030220F7
:1003B0000FB41CB5084B06AA7B446946009005980B
:1003C00000F0E5F804460020694600F0F3F8204606
:1003D0001CBC5DF814FB0000F901000010B5431CC3
:1003E00002E010F8011B71B18107FAD14FF0013220
:1003F00002C88C1A8C4314EAC211F9D0C01A0A063A
:1004000003D0C01E10BDC01A10BD0A0401D0801E4A
:1004100010BD0902FCD0401E10BD704770477047E8
:1004200070B5044685690068C10601D5302600E034
:100430002026C00707D070BDD4E90121304690477F
:10044000206A401C20626D1EF6D570BD70B5044652
:1004500085690078C00707D170BDD4E9012120204B
:100460009047206A401C20626D1EF6D570BD096859
:100470004A0501D540B27047C905FCD500B27047A6
:1004800009684A0501D5C0B27047C905FCD580B2DC
:10049000704770B50C460546012A05D028788006BD
:1004A00000D5EA69002302E0012305E05B1C9342CA
:1004B00002D2E05C0028F9D1A869E618C01AA86148
:1004C000286A184428622846FFF7AAFF04E0D5E905
:1004D000012114F8010B9047B442F8D32846FFF7E6
:1004E000B5FF70BD2DE9F04106460024106875295E
:1004F000314616A510D0FFF7BAFF002802DA4042B5
:1005000013A507E031688A0701D512A502E0490763
:1005100004D511A5012401E0FFF7B2FF00210A2252
:1005200006F1240709E0B0FBF2FCB0FBF2F302FB9A
:100530001C00303078541846491C0028F3D123465B
:100540002A463046BDE8F04100F061BA00000000E4
:100550002D0000002B000000200000001168026840
:10056000006A530501D508700AE0D30501D508805B
:1005700006E0130603D5C217C1E9000200E00860D7
:100580000120704701694A1C02610878704700B574
:100590008FB0CDE901310021059105497944CDE9BC
:1005A00003101146684600F029F90FB000BD0000A5
:1005B000E5FFFFFF0A6802F8010B0A6070470000C0
:1005C0002DE9FF5F15468A460446DFF8AC80F84403
:1005D0000027D8E900103E46CDE9001010E03AF8B7
:1005E00016106A4602A800F023FE411C07D02178AD
:1005F000890603D5E269391891420DD80744761C63
:100600002078800602D5E069B84205DDAE42E6DB1F
:100610003AF816000028E2D1A069C01BA06120466C
:10062000FFF7FEFED8E90010CDE90010002017E02A
:100630003AF818106A4602A800F0FAFDB0F1FF3F40
:1006400081460BD000250DF1080B05E0D4E901210E
:100650001BF8050090476D1C4D45F7D308F10100CC
:10066000B0428046E4DB206A384420622046FFF72F
:10067000EDFEBDE8FF9F0000322200002DE9F041B1
:100680008046D21D22F007020025D2E90002F5299A
:1006900015A614D0011E72F1000106DA0023D0EB7A
:1006A000030063EB020211A608E0D8F800108B07E4
:1006B00001D50FA602E0490701D50EA60125114676
:1006C000002408F1240704E000F05CF930323A55C8
:1006D000641C50EA0102F7D12B46324621464046BF
:1006E000BDE8F04100F093B9000000002D000000CB
:1006F0002B0000002000000030B4002100F1240491
:1007000008E002F00705D208303542EA4372DB0800
:100710006554491C52EA0305F3D10468002310A272
:10072000250708D504F020040C4304D0C469012334
:100730000CA2641EC46130BC00F069B910B5044657
:1007400021461068FFF79CFE02462046BDE8104097
:100750000023D1E7D21D22F00701D1E90023CBE726
:100760000000000030000000F0B40D4601880905CB
:1007700002D5214C7C4402E01F4C7C440E34002105
:1007800000F1240608E002F00F071209E75D42EAD3
:1007900003721B097754491C52EA0307F3D102780C
:1007A0000023120704D5702D06D009B1022311349D
:1007B0002246F0BC00F02BB901231034F8E770B5E5
:1007C00004460D4621461068FFF75AFE02462946A8
:1007D0002046BDE870400023C6E7D21D22F0070383
:1007E000D3E90023C0E70368126843F020030360E5
:1007F0000823C3610023B7E7942000002DE9F05FD0
:10080000894604464FF0000ADFF874B1FB44C0F893
:1008100020A02046E1688847002874D0252806D00B
:10082000D4E901219047206A401C2062F1E70026AC
:100830005F462046E16888472028054607DB312DC2
:1008400005D2781910F8200C08B10643F1E7B0077B
:1008500001D526F00406C4F81CA00027C4F818A08F
:100860002A2D09D0284601F087FF38B304EB87080A
:10087000303DC8F8185019E059F8041B204604EB25
:1008800087029161E1688847012F054618D1E06928
:10089000002820DA26F020061DE0D8F8180000EB2A
:1008A000800005EB40003038C8F818002046E168A9
:1008B0008847054601F060FF0028EED1012F0AD0DD
:1008C0002E2D08D12046E16888477F1C0546022F5F
:1008D00046F02006C4DBA069002803DA404246F057
:1008E0000106A061F00701D026F010066C2D0BD098
:1008F000682D09D04C2D39D06A2D35D0742D35D0C6
:100900007A2D33D016E038E0E1682F46204688473C
:10091000B842054609D16C2F26D04FF48060E168BB
:10092000064320468847054604E06C2F1AD04FF452
:10093000807006430DB3A5F14100192802D8203577
:1009400046F400664A462946204626604E46FFF792
:10095000A3FC80B101280BD0F61D26F0070000F1A2
:10096000080956E74020E4E78020D8E70020D6E7D2
:1009700006F104094DE7284652E7206ABDE8F09FDA
:100980002420000030B5B0F10A0271F100034FEAF3
:10099000900E4EEA817EB0EB0E0061EB91014FEAC2
:1009A000101E4EEA017E10EB0E0041EB11114FEAD2
:1009B000102E4EEA016E10EB0E0041EB11214FEAB2
:1009C000104E4EEA014E10EB0E0041EB1141401863
:1009D00041F100014FEAD00040EA41704FEAD101F5
:1009E0004FEA810444EA907410EB800544EB010463
:1009F0006D1944EB0404521BA3414FF0000348BFA0
:100A00000A3200D530BD401C41F1000130BD2DE956
:100A1000F0470D4699469246044600F124080168C5
:100A2000880604D5E06921F01001216000E0012072
:100A3000A84201DD471B00E00027A1697A1902EBFB
:100A40000900081AA0612078C00602D42046FFF7EA
:100A5000E7FC002608E0D4E901211AF806009047D7
:100A6000206A401C761C20624E45F4DB2078C006CC
:100A70000AD52046FFF7D4FC06E0D4E90121302056
:100A80009047206A401C2062381EA7F10107F4DC61
:100A900007E0D4E9012118F805009047206A401CBE
:100AA0002062281EA5F10105F3DC2046FFF7CEFCED
:100AB0002078000602D50220BDE8F0870120FBE780
:100AC0002DE9FF4F0C461E464FF0FF378BB0D2E9A1
:100AD0000001DDF860800A908A46C1F30A5505B925
:100AE0003D46002108464FF00000BAF1000F00F427
:100AF000400005DA00EB80004FF4400101EA5000AD
:100B00004FEA9059B9F1010F00DDB9460A9850EA51
:100B10004A000ED044F61050A5F2FF3545432F147D
:100B2000B8F1000F1ED07542291E1EDDC9F100026A
:100B30001CE0B8F1010F4FF0000001D0302103E0BC
:100B4000F24305E02154401CB042FBDB304600225A
:100B5000002121540B99C1F80880C1E900200FB091
:100B6000BDE8F08FBD1B6D1CDEE74A4600DA694226
:100B700006A800F0F3FB06AB93E8070003AB83E89D
:100B8000070050460A9901F017FA8DE80700A0F512
:100B900000501F3800900398002D0ADD42F21F011B
:100BA0004A460844002303A90390684601F080FCEC
:100BB00009E0A0F500504A461F38002303A903901E
:100BC000684601F08AFC8DE807000004000C03D0A1
:100BD0004FF0FF30410800E01046B8F1000F03D09D
:100BE0000022009215461EE0751E05D4FFF7CAFECE
:100BF000303262556D1EF9D5B3460122084302D04A
:100C000000227F1C04E02078302801D100227F1EC2
:100C1000002A099784D01DE0112D07DAFFF7B2FEF4
:100C2000303262556D1C50EA0102F5D1084302D002
:100C30000098C8B10EE00021681E05E0235C625CEC
:100C400063542254401E491C8142F7DBAB46A81B6B
:100C5000401E0990002004F80B000B98099AC0F878
:100C60000880C0E9002B7AE711264FF0000857E70B
:100C70002DE9F04F88460446D21D22F0070191B0BD
:100C8000D1E90001CDE90A0101F05EFD02460B98B1
:100C9000C00F01D02D2007E02068810701D52B204F
:100CA00002E0202101EAC000032A099001D0072AAE
:100CB00005DB03464146204600F010FB0BE120789F
:100CC000800601D5E06900E00620B8F1650F814695
:100CD00006D0B8F1660F18D0B8F1670F70D131E0C7
:100CE0000020B9F1110F009001DB112301E009F19F
:100CF00001030AAA01A90CA8FFF7E2FEDDE90C70C6
:100D0000002609F10105834647E001204B4600908B
:100D10004FF000470AAA01A90CA8FFF7D1FEDDE9B0
:100D20000DB00C995D46002610B909F101000D18AF
:100D3000B9EB050003D4C0F1FF3609F10105A5EBBD
:100D400009002BE0B9F1010F01DA4FF00109002091
:100D5000B9F1110F0090484601DD112300E0034670
:100D60000AAA01A90CA8FFF7ABFEDDE90C704D46FD
:100D700000268346207800070AD4AB4500DA5D469A
:100D800001A8012D04DD411911F8011C302907D0FB
:100D90004F4502DA17F1040F04DA012082460FE012
:100DA0006D1EEEE7002F02DCED1B3E4403E0781CD5
:100DB000A84200DD7D1CB81B00F1010A4FF000477E
:100DC0002078000703D4AA4501DB4FF0FF3A002149
:100DD000B7F1004F0DF143088DF8431024D00220E5
:100DE0002B23002F01DA7F422D230A21021EA0F1BE
:100DF000010000DC5FB197FBF1FC97FBF1F201FB16
:100E00001C7C17460CF1300C08F801CDEEE7A8F178
:100E1000010003702188090501D5452100E0652105
:100E2000A0F1010800F8011C09980FA9A1EB08071F
:100E3000FF1D00B10120411901EBEA70A16938449E
:100E4000081A401EA0612078C00602D42046FFF791
:100E5000E7FA099828B1D4E901219047206A401C9B
:100E600020622078C00622D52046FFF7D9FA1EE07E
:100E7000002E04DBB34502DD01A8805D00E03020D8
:100E8000D4E901219047206A401C2062761CAAF117
:100E900001005FEA000A0AD100F01CFAC06801688C
:100EA000405CD4E901219047206A401C2062281E42
:100EB000A5F10105DCDC07E0D4E9012118F8010BFC
:100EC0009047206A401C2062381EA7F10107F3DC1E
:100ED0002046FFF7BBFA032011B041E62DE9F04FA1
:100EE00004460D46D21D22F0070089B0D0E90097D4
:100EF0004846394601F028FC0246F80F01D02D2360
:100F000007E02068810701D52B2302E0202101EAB8
:100F1000C0038DF820300BB1012000E00020032A2F
:100F2000824601D0072A04DB2946204600F0D6F984
:100F30003FE12078800601D40D2500E0E569C7F384
:100F40000A560D2D49DA00214FEA175B08464FF08B
:100F50000000002F00F4400007DA00EB80004FF49F
:100F6000400100EBD07001EA60008115012901DD2C
:100F70004FF0FF3100224FEA850CBCF1180F06D369
:100F80001346ACF118004FF08052C24003E04FF41A
:100F9000801323FA0CF30CF10C0CBCF1200F04D3DA
:100FA000ACF1200C09FA0CF001E007FA0CF0002972
:100FB0004FF0004801DD18B90FE00ED140450CD3C9
:100FC00019EB02095F4121B9404502D19F4329EA4B
:100FD0000209BBEB175F00D0761C2088000502D504
:100FE0007B48784402E07A487844193808AA3023CC
:100FF00002F80A30037C0AF10101002E0AF1020A0C
:1010000053546A4602DC4FF0300101E04FF03101E9
:101010004FF001088DF8001002D0A6F2FF3603E071
:1010200059EA470100D06B4E002D02DC21780907F8
:1010300004D54FF002082E218DF80110C44600217E
:101040000BE0C7F303433F01C35C491C6D1E02F86C
:101050000830052908F1010801DA002DF1DC002132
:101060000CE000EB1973491C1B786D1E082902F86F
:1010700008304FEA091908F1010801DA002DF0DC07
:1010800021688B0602D516E0A8F10108E04505DDD0
:1010900002EB080313F8013C302BF5D0B8F1000F38
:1010A00009DD02EB080313F8013C2E2B03D10907DD
:1010B00001D4A8F10108002D05DD3E2102F8081039
:1010C0006D1E08F10108407C002E02F8080008F1AE
:1010D000010804DA2D20764202F8080002E02B20F5
:1010E00002F808000A214FF47A70864208F10108DC
:1010F0000BDB96FBF0F3303302F8083096FBF0F38D
:1011000008F1010800FB136601E0642E0CDB64208B
:1011100096FBF0F3303302F8083096FBF0F308F159
:10112000010800FB136601E00A2E06DB96FBF1F0D6
:10113000303002F8080008F1010896FBF1F001FBDD
:101140001060303002F80800A16908F1010808EBCE
:10115000050202EB0A00081AA0612078C00602D43A
:101160002046FFF75DF9216A08AE01EB0A00206214
:1011700004E0D4E9012116F8010B9047BAF1010A05
:10118000F7D22078C00602D52046FFF749F96E460F
:1011900009E016F8010B3E280FD0D4E90121904751
:1011A000206A401C2062B8F10108F2D22046FFF705
:1011B0004DF909B00320BDE8F08F206A2844206271
:1011C00003E0D4E90121302090476D1EEBD3F8E70E
:1011D0007218000002FCFFFF10B5436913B1AFF3B2
:1011E000008001E0FFF755F9012010BD127800F1F1
:1011F00024010A7000224A700122EDE711684FF0C5
:10120000FF32E9E710B5436913B1AFF3008001E0A5
:10121000FFF7D6F9012010BD128800F12401828465
:101220000022C2840122EDE711684FF0FF32E9E7A6
:101230002DE9F04116460C46054600F043F80368D8
:1012400093F80101012807D0FF2C12D8185D80B156
:1012500001202C70BDE8F081D3F807013246214609
:1012600003F20713C7182846BC46BDE8F041002327
:1012700060474FF0FF30EDE7754600F0EBF8AE4603
:1012800005006946534620F00700854618B020B592
:10129000FFF77CF8BDE820404FF000064FF0000754
:1012A0004FF000084FF0000BAC46ACE8C009ACE8CA
:1012B000C009ACE8C009ACE8C00921F007018D46BF
:1012C0007047000010B500F005F8001D10BD00BF0C
:1012D000E514000000487047180102202DE9F04194
:1012E0001F46044603260168072A01F4006004DB58
:1012F00008B116A505E016A503E008B115A500E0A4
:1013000015A521F010002060A069C01EA0610FB1DA
:10131000401EA0612046FFF783F84FB1D4E90121B8
:1013200038469047206A401C2062C01C206206E0BC
:10133000206AFAE7D4E9012115F8010B9047761EDF
:10134000F8D22046FFF782F8BDE8F0814E414E000A
:101350006E616E00494E4600696E66002DE9F047E9
:10136000814616468AB0354878440DC88DE80D0090
:1013700032487844801C03AC0DC884E80D0041F667
:101380009B300844372190FBF1F290FBF1F5A5F179
:10139000800501FB12041B3C02D56442012000E0E1
:1013A0000020DFF898A080460027FA44AAF1BE0A80
:1013B0000EE0E0070AD03246684607EB47010123FA
:1013C0000AEB810101F089F88DE8070064107F1CA9
:1013D000002CEED1194F7F44AE3F19E0E80715D03D
:1013E00007EB04100DF1180A90E80E008AE80E00D1
:1013F000C068F04201D1981908903246012306A92D
:1014000003A801F06AF803AB83E807006D10641CC1
:10141000002DE3D14FF0010332466946B8F1000FC9
:1014200003A802D001F044F801E001F056F8C9E940
:101430000001C9F808200AB0BDE8F0877C1500005B
:1014400010B50446AFF300802046BDE81040FEF71B
:1014500088BF000000487047F8000220000000002C
:1014600030B44FF0013C50F8042BCCFA52F451F850
:10147000043BD51A20D1FCB950F8042BCCFA52F415
:1014800051F8043BD51A17D1B4B950F8042BCCFA53
:1014900052F451F8043BD51A0ED16CB950F8042B14
:1014A000CCFA52F451F8043BD51A05D1002CDAD00D
:1014B00030BC4FF00000704729BAB1FA81F111F049
:1014C0001801D1F120008440F2D1CA40CB4012F083
:1014D000FF0213F0FF0330BCD01A704701491820F7
:1014E000ABBEFEE7260002007047000000000000CF
:1014F00043F61441C4F20101086840F0010008609D
:1015000040F61000C4F20200006800F4005101200F
:10151000B0EB513F07D1FFE740F26E11C2F202017A
:1015200001200870FFE770474EF68851CEF20001A7
:10153000086840F4700008604EF60851CEF20001D1
:101540004FF000600860704744F61C00C4F20000D1
:10155000006800F020010120B0EB511F16D1FFE719
:1015600044F62400C4F20000016840F26C10C2F29C
:10157000020001700078482807D1FFE740F26E11A1
:10158000C2F2020101200870FFE7FFE77047000088
:1015900080B582B0019000200090FFE7009801998B
:1015A000884209D2FFE74FF47A5000F01DF8FFE7B8
:1015B000009801300090F1E702B080BD000000000B
:1015C00080B582B00190FFE70198007838B1FFE75D
:1015D0000198411C0191007800F026F8F4E702B070
:1015E00080BD00000000000081B00090009801382C
:1015F0004EF21401CEF2000108604EF21801CEF254
:10160000000100200860FFE74EF21000CEF200005B
:10161000006800F480310020B0EB114F01D1FFE7EA
:10162000F2E701B07047000081B08DF80300FFE7DA
:1016300044F61C00C4F2000000680006002801D433
:10164000FFE7F5E79DF8030044F62801C4F2000126
:10165000086001B07047000082B00190009140F234
:101660007411C2F2020100200870FFE740F274100A
:10167000C2F2020000780099884220DAFFE7019860
:10168000007844F62801C4F2000108600198013096
:101690000190FFE744F61C00C4F200000068C1B2EC
:1016A0000020B0EBD11F01D1FFE7F3E7FFE740F2E5
:1016B0007411C2F20201087801300870D6E744F6CE
:1016C0002801C4F200010D200860FFE744F61C0069
:1016D000C4F200000068C1B20020B0EBD11F01D1FC
:1016E000FFE7F3E702B0704740F22441C4F2000183
:1016F0000020086040F20041C4F20001086840F098
:1017000001000860FFE740F22440C4F200000068D6
:1017100080097C2801D8FFE7F5E740F20041C4F2D8
:101720000001086820F00100086040F27411C2F264
:10173000020100200870FFE740F27410C2F20200BC
:10174000007807282ADCFFE740F22441C4F20001B8
:101750000020086040F20041C4F20001086840F037
:1017600001000860FFE740F22440C4F20000006876
:10177000C0097C2801D8FFE7F5E740F20041C4F238
:101780000001086820F001000860FFE740F27411D2
:10179000C2F20201087801300870CDE770470000FE
:1017A00085B08DF813008DF8121003928DF80B3070
:1017B00045F20441C4F200010191086840F2FF3291
:1017C000904308609DF81320086840EA42000860D2
:1017D000086820F480600860086820F47F000860D2
:1017E000086840F480300860086820F000700860E5
:1017F000086840F400500860FFE745F21840C4F262
:101800000000006800F00200022801D0FFE7F4E7C2
:101810009DF8120045F22841C4F200010860FFE77C
:1018200045F21840C4F20000006800F04000402873
:1018300001D0FFE7F4E745F20441C4F20001009152
:10184000086840F480600860086820F47F00086041
:101850009DF80B20086840EA02400860086820F004
:1018600000700860086840F4005008609DF80B00A4
:101870008DF80A00FFE79DF80A0001281CDBFFE74E
:10188000FFE745F21840C4F20000006800F00400D1
:10189000042801D0FFE7F4E745F22440C4F2000039
:1018A0000068039908700398013003909DF80A00BE
:1018B00001388DF80A00DEE745F20441C4F2000168
:1018C000086840F480400860FFE745F21840C4F221
:1018D0000000006800F02000202801D0FFE7F4E7B6
:1018E00005B070470000000080B584B08DF80F008F
:1018F0008DF80E1002928DF8073045F20441C4F2C3
:1019000000010091086840F2FF32904308609DF8A2
:101910000F20086840EA42000860086820F48060F0
:101920000860086820F47F0008609DF80700421CEA
:10193000086840EA02400860086840F000700860EB
:10194000086840F40050086042F62E10C0F600000F
:10195000FFF736FEFFE745F21840C4F200000068CA
:1019600000F00200022801D0FFE7F4E79DF80E0026
:1019700045F22841C4F2000108609DF807008DF887
:101980000600FFE79DF8060001281CDBFFE7FFE7E4
:1019900045F21840C4F20000006800F0020002287E
:1019A00001D0FFE7F4E70298007845F22841C4F23D
:1019B000000108600298013002909DF8060001388D
:1019C0008DF80600DEE7FFE745F21840C4F200009C
:1019D000006800F02000202801D0FFE7F4E704B001
:1019E00080BD00000000000081B08DF803009DF96B
:1019F000030000280ED4FFE79DF9031001F01F0239
:101A0000012090404A094EF20011CEF2000141F847
:101A10002200FFE701B070472DE9F043A7B0002096
:101A20002290269043F63005C4F20205286840F063
:101A30000600286040F20044C4F20204206843F625
:101A4000FC72CFF6FF7210402060206844F2010162
:101A50000843206040F60001C4F20201086820F04B
:101A60004060086040F20441C4F20201219108681C
:101A700020F08100086040F20841C4F202011D918B
:101A800008684CF203031843086040F60801C4F2EA
:101A90000201086840F04060086040F20C41C4F266
:101AA00002011E9108681040086040F60C01C4F263
:101AB0000201086820F040600860086840F000609B
:101AC00008604EF21401CEF200016FF07F40086012
:101AD0004EF21001CEF20001086840F005000860E7
:101AE00043F64401C4F20201086840F480400860F3
:101AF00043F61401C4F20101086820F0F000086008
:101B0000086840F02000086043F60041C4F201017B
:101B1000086840F40050086043F60841C4F201012F
:101B2000086840F4005008602820FFF75DFF28682F
:101B300040F00800286040F60041C4F20201086845
:101B400040F42020086040F62441C4F202010868F5
:101B500040F07700086043F64001C4F202011F9193
:101B6000086840F48020086044F60C01C4F20001CB
:101B700040F28360086044F60001C4F20001209145
:101B8000086840F02C0008602720FFF72DFFDDF8E3
:101B900074C01E9A1F9B2099DDF884E0286840F0ED
:101BA00002002860206840F420202060DEF8000059
:101BB00040F44070CEF80000DCF8000040F47020E3
:101BC000CCF80000106840F4A020106040F22442DD
:101BD000C4F20202106840F044001060186840F43B
:101BE0000010186043F69002C4F20202106840F43C
:101BF0000030106045F20042C4F20002106820F08C
:101C00000100106045F2104CC4F2000CDCF800003A
:101C100040F6137EC3F2420E40EA0E00CCF80000FC
:101C2000106840F001001060186840F00200186071
:101C300040F22842C4F200021820106040F22C4CFE
:101C4000C4F2000C4FF6FF12CCF800201A6842F0E4
:101C500008021A6040F62842C4F20002106040F602
:101C60002C42C4F2000249F28060C0F29800106079
:101C7000086840F0010008604FF47A70FFF788FCB4
:101C800042F60010C0F60000FFF79AFC42F668101A
:101C9000C0F60000FFF794FC42F60210C0F6000008
:101CA000FFF78EFC229840F26612C2F20202107018
:101CB000682024906B210123FFF716FE42F64210A4
:101CC000C0F60000FFF77CFC40F20400C2F2020004
:101CD0002390FEF783FB01462398FFF7BDFC249871
:101CE00040F26D12C2F20202259275210E23FFF717
:101CF00057FD25980078682824D0FFE740F240007F
:101D0000C2F202001B90FEF769FB01461B98FFF729
:101D1000A3FC40F26D10C2F20200027840F26300B0
:101D2000C2F202001C9042F6C111C0F60001FEF79B
:101D30003FFB1C98FEF752FB01461C98FFF78CFCFA
:101D4000FFE7FEE740F29A00C2F202001990FEF7A8
:101D500045FB01461998FFF77FFC40F2C200C2F232
:101D600002001A90FEF73AFB01461A98FFF774FC3E
:101D7000FFE76420FFF70CFC40F26612C2F2020299
:101D8000179200201070682016901B2101231893D1
:101D9000FFF7AAFD1698179A189B1C21FFF7A4FDC0
:101DA0000A20FFF7F5FBFFE740F26E10C2F20200D7
:101DB0000078012840F0FB80FFE740F26E11C2F28C
:101DC00002010020087040F27011C2F202010120ED
:101DD0000860FFE740F62441C4F200010D910020A5
:101DE000086040F60047C4F20007386840F0010080
:101DF000386040F25812C2F202020C9268203B2175
:101E00000E23FFF7CDFC0C980278417841EA0221BD
:101E100040F27612C2F202020E9211808278C178EC
:101E200041EA022140F27812C2F202020F921180BE
:101E30000279417941EA022140F27A12C2F20202A9
:101E4000109211808279C17941EA022140F2821216
:101E5000C2F2020211921180027A417A41EA022111
:101E600040F27C12C2F2020212921180827AC17A8E
:101E700041EA022140F27E14C2F202042180017B79
:101E8000407B40EA012040F28015C2F20205288022
:101E9000FFF72AFC0D9A0E990F9BDDF840C01198B0
:101EA000DDF848E03E6826F001063E6092ED000A4B
:101EB000B8EE400B9FED3E1B20EE010BB7EEC00BC2
:101EC00040F2E817C2F2020787ED000A97ED001A08
:101ED00040F26816C2F20206159696ED000A30EE40
:101EE000010A86ED000A40F27019C2F20209D9F81F
:101EF000002002F10108C9F8008097ED000AB7EE52
:101F0000C00A96ED001AB7EEC11AB1F90010B3F984
:101F10000030BCF900C0BEF900E0B4F90040B5F9EA
:101F20000050B0F900606846139086624562046212
:101F3000C0F81CE0C0F818C04361016180ED021BCD
:101F400080ED000B40F28410C2F20200149042F6C1
:101F50008B11C0F60001FEF72BFA1498FEF73EFA3B
:101F600001461498FFF778FB159890ED000A40F2AF
:101F70000000C2F2020090ED001AB4EE410AF1EE48
:101F800010FA12DBFFE740F26811C2F202010020F2
:101F9000086040F2EF00C2F202000B90FEF71EFA5A
:101FA00001460B98FFF758FB00E013E7FFE7FBE65D
:101FB0008DEDB5A0F7C6703E5FEA400C08BF91F00A
:101FC000000F4FEA8C234FEAC12243EA51514FEAF6
:101FD0001C5018BF00F5F0404FEA300018BF41F028
:101FE00000415FEA6C5C00F02980BCF1FF3F08BF54
:101FF00040F080407047130C06BF12044FF0100CE5
:102000004FF0000C130E04BF12020CF1080C130F5A
:1020100004BF12010CF1040C930F04BF92000CF1E9
:10202000020CD30F04BF52000CF1010C11464FF00B
:102030000002A0F11F00A0EB0C00704711F0004F50
:1020400008BF704731F000413FF4D5AF0B0C06BF1D
:1020500009044FF0100C4FF0000C0B0E04BF0902E6
:102060000CF1080C0B0F04BF09010CF1040C8B0FD1
:1020700004BF89000CF1020CCB0F04BF49000CF126
:10208000010CCCF1200322FA03F341EA030102FA26
:102090000CF2A0EB0C0000F10100704723F07F4729
:1020A00020F07F4C80EA030000F00040ACEB070317
:1020B00003F57C5303F1FF032DE9804909B44FEA8E
:1020C000144324EA03484FEA154B25EA0B4E0FF25E
:1020D000042606EB13273E7803FB0667C7F50007C7
:1020E00007FB06F64FEAD64606F102064FEA5437DA
:1020F00007FB066CCCF1005C4FEA1C472CEA074C4E
:102100000CFB06F507FB06F404EB15464FEA9616A2
:1021100049085FEA320234BF00204FF000404FEA26
:10212000D13706FB07FC4FEA1C4C0CFB0BF7D21B0C
:1021300003FB0CF761EB07010CFB0EF7B0EB07405C
:1021400072EB17420CFB08F734BFA2EB0742B2EB6D
:10215000074261EB17414FEA0C444FEA910706FB37
:1021600007FC4FEA1C4C0CFB0BF7B0EBC74072EBC3
:10217000573203FB0CF734BFA2EBC742B2EBC742A6
:1021800061EB57310CFB0EF7B0EBC70072EB5772E7
:102190000CFB08F734BFA2EBC702B2EBC70261EB3E
:1021A00057714FEA816141EA92114FEA826242EA35
:1021B00090124FEA806004EBCC04039F4FEAD137C2
:1021C00006FB07FC4FEA1C4C0CFB0BF7D21B03FB76
:1021D0000CF761EB07010CFB0EF7B0EB074072EB5D
:1021E00017420CFB08F734BFA2EB0742B2EB0742E1
:1021F00061EB17414FEA8C5504EB9C244FEA9107A1
:1022000006FB07FC4FEA1C4C0CFB0BF7B0EBC7407E
:1022100072EB573203FB0CF734BFA2EBC742B2EBB1
:10222000C74261EB57310CFB0EF7B0EBC70072EB06
:1022300057720CFB08F734BFA2EBC702B2EBC70220
:1022400061EB57714FEA816141EA92114FEA826274
:1022500042EA90124FEA806015EB4C2544F10004ED
:102260004FEAD13706FB07FC4FEA1C4C0CFB0BF77F
:10227000D21B03FB0CF761EB07010CFB0EF7B0EB75
:10228000074072EB17420CFB08F734BFA2EB074282
:10229000B2EB074261EB17414FEA813141EA9241CB
:1022A0004FEA823242EA90424FEA80304FEA0C769F
:1022B00015EB1C1544F1000448EA03434EEA0B48B1
:1022C0004FF0000EB2EB080C71EB030724BF62461F
:1022D00039464EEB0E0E4FF0000B001852414941AB
:1022E0004BEB0B0BB2EB080C71EB03077BF1000B14
:1022F00024BF624639464EEB0E0E4FF0000B00181D
:10230000524149414BEB0B0BB2EB080C71EB03074D
:102310007BF1000B24BF624639464EEB0E0E51EAAC
:10232000020718BF46F0010616EB0E7655F10002C3
:1023300054F1000103D5BDE88901BDE80088BDE87E
:102340008901BDE80048B619524141EB0101A3F1F2
:102350000103704780807F7E7D7C7B7A79787776F9
:1023600076757473727171706F6E6E6D6C6C6B6A72
:102370006A69686867666665646463636261616010
:10238000605F5F5E5E5D5D5C5C5B5B5A5A5959588D
:1023900058575756565555555454535352525251F7
:1023A000515050504F4F4F4E4E4D4D4D4C4C4C4B4D
:1023B0004B4B4A4A4A494949484848474747474694
:1023C00046464545454444444443434343424242D0
:1023D000424141419C46002B30D477002BD04FEA3C
:1023E00037071CB503B44FF010004FF01001BAF1DD
:1023F000000F06D0BCF1000FDCBF40F0080040F039
:1024000008014FF000000FBCBDE810400BF1010BBC
:10241000BBF1010F08BF5FEA170722BF12F10102EB
:1024200011F101014FF0004143F1000300F00040C1
:1024300043EA00007047F9D35708D0E746EA06465A
:102440004FEA164613F1400F1FDD13F1200FDFBFD7
:1024500016430A46002120335B42BED0C3F1200759
:1024600046EA06464FEA164602FA07F746EA070624
:1024700022FA03F2C3F1200701FA07F742EA070242
:1024800021FA03F14FF00003A7E746EA020646EA05
:1024900006464FEA164646EA0106BCBF46EA06462D
:1024A000360C4FF000034FF000024FF0000194E7AC
:1024B0002DE9804C70B49A46934691E8380007C8DD
:1024C00031EA400C48BF34EA430C03D5FFF7E6FD80
:1024D000FFF780FFF0BCBDE8008C2DE9804C70B4A4
:1024E0009A46934691E8380007C810F0804F08BF1D
:1024F00013F0804F03D100F005F8FFF76BFFF0BC3D
:10250000BDE8008C20F07F4723F07F4C80EA030079
:1025100000F0004007EB0C03A3F57C53A3F1FE038E
:1025200092F0000F00F0B38095F0000F00F077807C
:102530002DE901494FEA114021EA00484FEA1446CB
:1025400024EA064700FB06FC08FB06F607FB08F832
:1025500018EB06484CEB164C00FB07F718EB074846
:102560004CEB17404FEA124B22EA0B4E4FEA15464E
:1025700025EA06470BFB06FC0EFB06F607FB0EFEE4
:102580001EEB064E4CEB164C0BFB07F71EEB074EF3
:102590004CEB174B18EB0B0840F1000018EB0E0B3F
:1025A00058EB000840F100008F1A4FF000014FF087
:1025B00000063CBFC943661B14BFB5EB040C0021E9
:1025C0003CBFC943F61B4FEA174427EA04454FEACC
:1025D0001C472CEA074C04FB076205FB07F70CFBC2
:1025E00005F616EB074642EB174204FB0CFC16EB14
:1025F0000C4642EB1C421BEB060658EB0202414123
:102600004EEA8E0E46EA9E0601D5BDE80189B6194E
:10261000524141EB0101A3F10103BDE801894FEAF9
:10262000144524EA05464FEA114721EA074C05FB09
:1026300007F406FB07F70CFB06F111EB074144EB2F
:10264000174405FB0CFC11EB0C4144EB1C444FEA16
:10265000124722EA074C05FB07F206FB07F70CFBC3
:1026600006F616EB074642EB174205FB0CFC16EB91
:102670000C4642EB1C456A1854F1000148BF7047F4
:10268000B619524141EB0101A3F10103704795F0E6
:10269000000F37D04FEA114221EA02464FEA1447B1
:1026A00024EA074C02FB07F106FB07F70CFB06F4D4
:1026B00014EB074441EB174102FB0CFC14EB0C44F8
:1026C00041EB1C414FEA154725EA074C02FB07F591
:1026D00006FB07F70CFB06F616EB074645EB17451E
:1026E00002FB0CFC16EB0C4645EB1C42121951F197
:1026F000000148BF7047B619524141EB0101A3F1F7
:10270000010370474FEA144524EA05464FEA114792
:1027100021EA074C05FB07F106FB07F70CFB06F265
:1027200012EB074241EB174105FB0CFC12EB0C428C
:1027300051EB1C414FF0000648BF7047921841EB27
:102740000101A3F10103704703B40198410000980F
:1027500050EAC12018BF04204A0D18BF40F0010004
:1027600040F2FF72B2EB515F08BF40F00200012857
:1027700008BF052002B0704730380A2801D2012076
:10278000704700207047000010B500290AD0087873
:10279000002807D005487844FEF762FE002801D0E3
:1027A000002010BD0248784410BD00005602000011
:1027B0004E02000010B500290AD00878002807D082
:1027C00005487844FEF74CFE002801D0002010BDDB
:1027D0000248784410BD0000460200003E0200009E
:1027E000F1EE100A4FF6FF71C0F2C03120EA01008D
:1027F00040F04070E1EE100A7047FEF739BAFEF77C
:102800006DBB0000000000000000000030313233DA
:102810003435363738394142434445464030580014
:102820003031323334353637383961626364656646
:1028300040307800040000080000000000000002A2
:102840000001000010303132333435363738396109
:102850006263646566787000303132333435363700
:102860003839414243444546585000000240000078
:10287000000000A00000000005400000000000C8AB
:10288000000000000C4000000000409C0000000020
:10289000194000000020BCBE0000000034400000D1
:1028A000BFC91B8E00000004B5400000504BCFD0C4
:1028B0006607E2CF010000006C4100003E8251AA91
:1028C000DFEEA73401000000D9420000DCB5A0E231
:1028D0003A301F97FFFFFFFFB4450000FD25A0C859
:1028E000E9A3C14FFFFFFFFFFF3F00000000008092
:1028F00000000000FF3F000000000080000000001A
:102900000D0A3D3D3D3D3D3D3D3D3D3D3D3D3D3D5A
:102910003D3D3D3D3D3D3D3D3D3D3D3D3D3D3D3DE7
:102920003D3D3D3D3D3D3D3D3D3D3D0D0A002020B1
:1029300050726A6F687565626120554152546E0D20
:102940000A00202050726A6F6875656261205541E7
:102950005254206465736465204B65696C2075561C
:102960006973696F6E0D0A0020205072756562618F
:102970002055415254206465736465204B65696C31
:102980002075566973696F6E0D0A00256420092051
:10299000252E3466200920252E3466200920256442
:1029A0002009202564200920256420092025642091
:1029B0000920256420092025642009202564200A97
:1029C00000257320252378200A0D0000182B00080D
:1029D00000000220F40000005C0200080C2C00083B
:1029E000F8000220F80600007C0200081C0000002D
:1029F00043000000F8FFFFFF0C0000000E00000085
:102A00000F0000002E000000100100004300000035
:102A1000F8FFFFFF004040404040404040404141FF
:102A200041414140404040404040404040404040A3
:102A3000404040404005020202020202020202023D
:102A4000020202020220202020202020202020023A
:102A500002020202020290909090909010101010CA
:102A60001010101010101010101010101010101066
:102A700002020202020288888888888808080808FA
:102A800008080808080808080808080808080808C6
:102A900002020202400000000000000000000000EE
:102AA0000000000000000000000000000000000026
:102AB0000000000000000000000000000000000016
:102AC0000000000000000000000000000000000006
:102AD00000000000000000000000000000000000F6
:102AE00000000000000000000000000000000000E6
:102AF00000000000000000000000000000000000D6
:102B000000000000000000000000000000000000C5
:102B100000000000000000000000803F54455354B6
:102B20004520444520434F4E4558414F2050415287
:102B300041204F204749524F53434F50494F204562
:102B4000204F204143454C45524F4D4554524F2054
:102B50000A0D0000000000004572726F20646520BD
:102B6000636F6E6578616F20636F6D2061204D50DB
:102B70005536303530200A0D0000004F706161611C
:102B80002E204575206E616F20736F752061204D7A
:102B90005055363035302C205175656D20736F756A
:102BA0002065753F203A532E204920616D3A000080
:102BB0000000436F6E6578616F2062656D207375EC
:102BC00063656469646120636F6D2061204D5055B9
:102BD00036303530200A0D0000004F692C20747506
:102BE000646F206A6F69613F2E2E2E204575207319
:102BF0006F752061204D50553630353020584420B7
:0C2C00000A0D0000000000410A00000066
:04000005080003717B
:00000001FF
